:020000040800F2
:1000000070110020E1010008E9010008C7020008A2
:10001000ED010008EF010008F101000800000000F8
:10002000000000000000000000000000F3010008D4
:10003000F5010008000000004F020008591E0008EA
:10004000FB010008FB010008FB010008FB010008A0
:10005000FB010008FB01000831090008AF09000896
:10006000C1090008D3090008E5090008FB010008E0
:10007000FB010008FB010008FB010008FB01000870
:10008000FB010008FB010008FB010008FB01000860
:10009000FB010008FB010008FB010008F70900084C
:1000A000FB010008FB010008FB010008FB01000840
:1000B000FB010008FB010008FB010008FB01000830
:1000C000FB010008FB010008FB010008FB01000820
:1000D000FB010008A1230008FB010008FB01000848
:1000E00043090008FB010008FB010008FB010008B0
:1000F000FB01000800F002F800F063F80AA090E8A5
:10010000000C82448344AAF10107DA4501D100F0D2
:1001100058F8AFF2090EBAE80F0013F0010F18BF3C
:10012000FB1A43F001031847A8D50000C8D500000A
:100130000A444FF0000C10F8013B13F0070408BF0D
:1001400010F8014B1D1108BF10F8015B641E05D0AB
:1001500010F8016B641E01F8016BF9D113F0080F60
:100160001EBF10F8014BAD1C0C1B09D16D1E58BFF2
:1001700001F801CBFAD505E014F8016B01F8016B29
:100180006D1EF9D59142D6D370470000002300249C
:1001900000250026103A28BF78C1FBD8520728BF97
:1001A00030C148BF0B6070471FB500F071FB040001
:1001B000002000210BF084FD401C60601FBD10B5C5
:1001C00010BD00F040FB1146FFF7EEFF00F083FB8F
:1001D00000F070FB03B4FFF7F2FF03BC00F074FB08
:1001E0000948804709480047FEE7FEE7FEE7FEE7CB
:1001F000FEE7FEE7FEE7FEE7FEE7FEE70448054907
:10020000054A064B70470000691E0008F50000080B
:10021000700B002070110020700D0020700D002068
:10022000EFF3108072B6704780F310887047334A3E
:100230001368012B04D04FF001031360304A1060A3
:10024000304A116030484FF0805101607047EFF341
:10025000108272B62948016891B14FF00001016027
:100260002748016829B1EFF3098121E9F00F0068FF
:100270000160244909680968B1E8F00F81F3098831
:1002800082F310884EF0040E70471E4908601C4926
:100290004FF00000086019494FF0010008601B484A
:1002A0004FF47F01D0F8002041EA020101601648B6
:1002B0004FF08051016016480068006880F308889C
:1002C00061B662B670471EF0040F0CBFEFF30880F2
:1002D000EFF3098020E9F00F40F804ED1EF0040F61
:1002E0000CBF80F3088880F3098800B508F078FB1C
:1002F0005DF804EB4EF0040E70470000240200206D
:100300001C0200202002002004ED00E020ED00E0AF
:1003100008ED00E070B5064600F0FEF904680546F9
:1003200030460A22002100F0FBF92C6070BD40EA43
:10033000010310B59B070FD1042A0DD310C808C9BB
:10034000121F9C42F8D020BA19BA884201D9012064
:1003500010BD4FF0FF3010BD1AB1D30703D0521CAF
:1003600007E0002010BD10F8013B11F8014B1B1BEA
:1003700007D110F8013B11F8014B1B1B01D1921E54
:10038000F1D1184610BD40EA0103024630B59B0783
:1003900010D14FF0013400E008C208C91D1B9D4375
:1003A00015EAC41FF8D013F0FF0102F8011B0DD0AD
:1003B0001B0AF8E711F8013B002B02F8013B05D0BE
:1003C00011F8013B002B02F8013BF3D130BD10B511
:1003D000431C02E010F8011B71B18107FAD14FF004
:1003E000013202C88C1A8C4314EAC211F9D0C01A27
:1003F0000A0603D0C01E10BDC01A10BD0A0401D0E9
:10040000801E10BD0902FCD0401E10BD40EA010351
:1004100070B59B072ED14FF00136042A2AD308C8A5
:1004200010C99D1B9D43121F15EAC61517D0D8B2DF
:10043000E1B2401A50EA056110D198B2A1B2401A57
:1004400050EA05410AD123F07F4024F07F41401A51
:1004500050EA052102D1180EA0EB146070BDA34232
:10046000DBD018BA21BA884201D9012070BD4FF003
:10047000FF3070BD0AB9002070BD10F8013B11F8C3
:10048000014B63B1A3420AD1521E08D010F8013BC0
:1004900011F8014B1BB1A34201D1521EEDD1181B23
:1004A00070BD421E12F8013F002BFBD111F8013B39
:1004B000002B02F8013BF9D17047032A40F230804B
:1004C00010F0030C00F0158011F8013BBCF1020F95
:1004D000624498BF11F801CB00F8013B38BF11F816
:1004E000013BA2F1040298BF00F801CB38BF00F82D
:1004F000013B11F0030300F02580083AC0F00880AA
:1005000051F8043B083A51F804CBA0E80810F5E78D
:10051000121D5CBF51F8043B40F8043BAFF3008070
:10052000D20724BF11F8013B11F801CB48BF11F8E5
:10053000012B24BF00F8013B00F801CB48BF00F8B5
:10054000012B704710B5203AC0F00B80B1E818506D
:10055000203AA0E81850B1E81850A0E81850BFF4AD
:10056000F5AF5FEA027C24BFB1E81850A0E818504C
:1005700044BF18C918C0BDE810405FEA827C24BFA0
:1005800051F8043B40F8043B08BF7047D20728BF2E
:1005900031F8023B48BF11F8012B28BF20F8023B7D
:1005A00048BF00F8012B70474FF000020429C0F04B
:1005B000128010F0030C00F01B80CCF1040CBCF195
:1005C000020F18BF00F8012BA8BF20F8022BA1EBE7
:1005D0000C0100F00DB85FEAC17C24BF00F8012BCC
:1005E00000F8012B48BF00F8012B70474FF00002C4
:1005F00000B5134694469646203922BFA0E80C5019
:10060000A0E80C50B1F12001BFF4F7AF090728BFF3
:10061000A0E80C5048BF0CC05DF804EB890028BF6F
:1006200040F8042B08BF704748BF20F8022B11F098
:10063000804F18BF00F8012B704710B5044610F02A
:10064000030F08BF11F0030F40F015804FF0013E7B
:10065000121FC0F20E8051F8043BA3EB0E0C2CEAE3
:10066000030C1CEACE1C08BF40F8043BF0D0A1F1FB
:10067000040102F10402521E08DB11F8013B002BB9
:1006800000F8013BF7D11146FFF78EFF204610BD61
:100690004FF0013C50F8042B51F8043B9A4221D111
:1006A000A2EB0C03934313EACC1317D150F8042B9D
:1006B00051F8043B9A4215D1A2EB0C03934313EA81
:1006C000CC130BD150F8042B51F8043B9A4209D1BA
:1006D000A2EB0C03934313EACC13DBD04FF00000E2
:1006E000704700BFD01A01BAB1FA81F101F01801C8
:1006F00022FA01F0CB40C1F12001DBB2C0B2C01A36
:100700002CFA01F3D11A914311EAC311E6D17047D3
:100710007047704770470000004870470C0B00207E
:100720002DE9F04791460F4680460446002614F80E
:10073000015B2DB100F030F80068405DC007F6D1D4
:100740002B2D02D02D2D18D0641E4A463946204646
:1007500000F02AF827B13968A14201D1C7F800801A
:100760004FF0020471050BD54042002803DDFFF76E
:10077000D3FF0460A007BDE8F08746F48066E4E795
:100780000028F8DAFFF7C8FF04606FF00040F2E7D6
:10079000004870470C0B002010B500F079F8001DE0
:1007A00010BD00BF1DB500002DE9F05F8246154663
:1007B0008B4600270AF10104B9460078302801D0A1
:1007C0009DB113E014F8010B0127782803D05828B5
:1007D00001D045B10AE00DB1102D07D1002714F862
:1007E000010B102502E0082500E00A250026B0468E
:1007F0000EE005FB080005FB06F101271FFA80F853
:1008000001EB1046B6F5803F00D3B94614F8010B52
:10081000294600F041F80028EBDABBF1000F05D0C3
:100820000FB1641E00E05446CBF80040B9F1000F50
:1008300006D0FFF771FF02210160C81EBDE8F09FDE
:1008400048EA0640FAE77546FFF7A2FFAE46050004
:100850006946534620F00700854618B020B5FFF7DB
:10086000CDFCBDE820404FF000064FF000074FF0F0
:1008700000084FF0000B21F00701AC46ACE8C009BE
:10088000ACE8C009ACE8C009ACE8C0098D467047C7
:10089000004870472C0B00203A2800D2303820F056
:1008A0002002412A01D3A2F13700884201D34FF040
:1008B000FF30704710B50446AFF300802046BDE816
:1008C0001040FFF787BC000001491820ABBEFEE7CF
:1008D00026000200704710B50AF02DFD002010BD63
:1008E00000F0F8FA054801F0C1FE05E0034801F008
:1008F000D9FD322009F0D4FEF8E7000000440040A2
:100900001CB5052009214FF480630022CDE90010B9
:10091000044905A009F07DFD044614B1204609F004
:100920005DFF1CBDE1080008424C55450000000079
:1009300010B508F079FA002006F04AFD08F09EFA9A
:1009400010BD10B508F070FA4FF4806000F084F824
:1009500010B10A2006F03CFD4FF4006000F07CF876
:1009600010B10B2006F034FD4FF4805000F074F805
:1009700010B10C2006F02CFD4FF4005000F06CF884
:1009800010B10D2006F024FD4FF4804000F064F813
:1009900010B10E2006F01CFD4FF4004000F05CF892
:1009A00010B10F2006F014FD08F068FA10BD10B564
:1009B00008F03AFA012006F00BFD08F05FFA10BDCE
:1009C00010B508F031FA022006F002FD08F056FAE0
:1009D00010BD10B508F028FA032006F0F9FC08F065
:1009E0004DFA10BD10B508F01FFA042006F0F0FC17
:1009F00008F044FA10BD10B508F016FA202000F0F7
:100A00002BF810B1052006F0E3FC402000F024F89C
:100A100010B1062006F0DCFC802000F01DF810B1BB
:100A2000072006F0D5FC4FF4807000F015F810B1E7
:100A3000082006F0CDFC4FF4007000F00DF810B166
:100A4000092006F0C5FC08F019FA10BD014908603C
:100A50007047000014040140014600200022074BAB
:100A60001B6803EA0102054B14331B680B4013B1EA
:100A70000AB1012000E0002070470000000401409E
:100A80008179002946D02A49096802689143284A99
:100A90001160111D096802689143254A121D1160F9
:100AA0000179244A1144D1F80014026811430279F3
:100AB000204B1A44C2F800141D4908310968026825
:100AC00091431B4A08321160111D09680268914365
:100AD000174A0C321160417910290ED1111F096893
:100AE00002681143124A08321160111D0968026838
:100AF00011430F4A0C32116018E041790D4A11443C
:100B0000D1F800140268114342790A4B1A44C2F822
:100B100000140BE00179074A1144D1F8001402686F
:100B200091430279034B1A44C2F800147047000045
:100B3000000401400000014030B500228B071C0F6B
:100B40000F2303FA04F20B4B8C1053F82430934319
:100B5000084C8D1044F8253023468C1053F824306F
:100B60008C07240F00FA04F42343024C8D1044F840
:100B7000253030BD080001402DE9F0410246002536
:100B80000026002000230024002791F803C00CF069
:100B90000F0591F803C00CF0100CBCF1000F03D04E
:100BA00091F802C04CEA050591F800C0BCF1000FB5
:100BB00031D0146800202BE04FF0010C0CFA00F348
:100BC000B1F800C00CEA03069E4220D183004FF02A
:100BD0000F0C0CFA03F7BC4305FA03FC4CEA0404BF
:100BE00091F803C0BCF1280F06D14FF0010C0CFAAC
:100BF00000FCC2F814C00AE091F803C0BCF1480F31
:100C000005D14FF0010C0CFA00FCC2F810C0401CDA
:100C10000828D1D31460B1F800C0BCF1FF0F34DD57
:100C2000546800202EE000F1080C4FF0010808FA8B
:100C30000CF3B1F800C00CEA03069E4221D18300F8
:100C40004FF00F0C0CFA03F7BC4305FA03FC4CEA17
:100C5000040491F803C0BCF1280F05D100F1080C81
:100C600008FA0CF8C2F8148091F803C0BCF1480FE0
:100C700007D100F1080C4FF0010808FA0CF8C2F88F
:100C80001080401C0828CED35460BDE8F0810000DD
:100C9000F0B502460023002400200025144E7068A1
:100CA000C2F3034593B202F44016B6F5401F05D1D6
:100CB00000BF0F4E76680E4F7E600FE002F4801684
:100CC000B6F5801F04D1032606FA05F4A04305E01B
:100CD000560D360103FA06F6B04300BF21B1560D9A
:100CE000360103FA06F63043014E7060F0BD000095
:100CF000000001400246002093680B400BB1012028
:100D000000E000207047416170470161704700F0CA
:100D10001BF801E000F09CF8FCE700001CB5052082
:100D20000821CB010022CDE90010054905A009F0FA
:100D300070FB044614B1204609F050FD1CBD0000B4
:100D40000F0D00084B45590008B50121082000F09F
:100D5000A9FF0220ADF8000028208DF803006946A5
:100D60000748FFF709FF40F60440ADF800004820AF
:100D70008DF8030069460248FFF7FEFE08BD00003B
:100D8000000C014010B5044614B101202E49087032
:100D90002D48007800283AD002212C48FFF7AAFFFE
:100DA000012810D004212948FFF7A4FF58B14FF4BF
:100DB00080612648FFF79EFF28B14FF40061234869
:100DC000FFF798FF18BB0A2009F06AFC00201E49B3
:100DD000087002211D48FFF78DFF012800D110BDCA
:100DE00004211A48FFF786FF08B90220F7E74FF4FD
:100DF00080611648FFF77EFF08B90320EFE74FF444
:100E000000611248FFF776FFD8B90420E7E7022116
:100E10000E48FFF76FFFA0B94FF480610B48FFF752
:100E200069FF01280DD1C1020848FFF763FF0128BF
:100E300007D104210548FFF75DFF012801D10249D0
:100E400008700020CBE70000BF020020000C01402A
:100E500010B50020FFF796FF1B4908700846007880
:100E6000012806D002280DD0032814D0042824D14C
:100E70001AE01648006808B9012000E00020134974
:100E800008601EE01248006808B9012000E0002058
:100E90000F49086015E00D48006808B9012000E01E
:100EA00000200A4908600CE00948006808B90120E0
:100EB00000E000200649086003E0642009F0F0FB30
:100EC00000BF00BF10BD0000BE020020BC012142D7
:100ED0008C81214208B501211C2000F0E3FE012194
:100EE0001D48FFF7D5FE4FF40040ADF80000032089
:100EF0008DF8020010208DF8030069461748FFF7AF
:100F00003BFE0820ADF8000003208DF80200102001
:100F10008DF8030069461248FFF72EFE4FF47070FB
:100F2000ADF8000003208DF8020010208DF80300BA
:100F300069460C48FFF720FE00200B4908600B496A
:100F4000C1F88C010A490860091D0860091D086084
:100F50000849C1F8A40108BD0002300000080140A2
:100F6000000C014000100140BC01214200802142E0
:100F7000980122420000224270B5002100230F2276
:100F8000C47804B3194C246804F4E064C4F5E06444
:100F9000210AC1F10403CA40447804FA03F18478B9
:100FA000144021430901124C0678A155047804F03D
:100FB0001F050124AC4005786D11AD0005F1E02559
:100FC000C5F8004109E0047804F01F050124AC4095
:100FD000084D0678761145F8264004786411A4007F
:100FE00004F1E024D4F8003170BD00000CED00E005
:100FF00000E400E080E100E000BF0A48006810F86B
:10100000080C0849096811F8041C084405490968D6
:1010100001F8080C03480068001F0249086000BF7F
:1010200070470000A402002000BF0A48006850F882
:10103000080C0849096851F8041C08440549096866
:1010400041F8080C03480068001F0249086000BF0F
:1010500070470000A402002000BF0A48006830F872
:10106000080C0849096831F8041C084400B2054915
:10107000096821F8080C03480068001F014908604E
:1010800000BF7047A402002000BF0A48006810F8A3
:10109000080C0849096811F8041C0840054909684A
:1010A00001F8080C03480068001F0249086000BFEF
:1010B00070470000A402002000BF0A48006850F8F2
:1010C000080C0849096851F8041C084005490968DA
:1010D00041F8080C03480068001F0249086000BF7F
:1010E00070470000A402002000BF0A48006830F9E1
:1010F000080C0849096831F9041C084005490968C9
:1011000021F8080C03480068001F0249086000BF6E
:1011100070470000A40200200448006810F8040C86
:10112000C0430249096801F8040C7047A40200207A
:101130000448006850F8040CC0430249096841F8AB
:10114000040C7047A40200200448006830F9040C25
:10115000C0430249096821F8040C7047A40200202A
:1011600010B5A4B0DF48006800781390DD4800682F
:10117000401CDC49086000201290DB480068001F1A
:10118000D949086011E0D848006802681398401EE9
:101190001299401A14A941F82020D3480068001F72
:1011A000D14908601298401C1290DDE91201884272
:1011B000E9D3CD48006800681190139811286ED2C9
:1011C000DFE800F0090E141D293747596E849CB6DC
:1011D000D2F4F2F1F000002011998847109074E1E8
:1011E00014980F901199884710906EE115980F9000
:1011F00014980E90119A0F999047109065E11698E7
:101200000F9015980E9014980D90119BDDE90E1219
:101210009847109059E117980F9016980E901598CE
:101220000D9014980C90119C0DA90EC9A047109018
:101230004BE11898009017980F9016980E901598FB
:101240000D9014980C90119C0DA90EC9A0471090F8
:101250003BE1DDE91801CDE9000117980F901698E0
:101260000E9015980D9014980C90119C0DA90EC914
:10127000A047109029E1DDE919211898CDE9012155
:10128000009017980F9016980E9015980D9014983E
:101290000C90119C0DA90EC9A047109015E111E109
:1012A000DDE9193218991B98CDE9013200910390BC
:1012B00017980F9016980E9015980D9014980C9002
:1012C000119C0DA90EC9A0471090FEE0DDE919237D
:1012D000DDE91B10CDE90123CDE90310189800903A
:1012E00017980F9016980E9015980D9014980C90D2
:1012F000119C0DA90EC9A0471090E6E0DDE91A2364
:10130000DDE91C10CDE90223CDE90410DDE9180167
:10131000CDE9000117980F9016980E9015980D9032
:1013200014980C90119C0DA90EC9A0471090CCE008
:10133000DDE91C321B991E98CDE904320391069019
:10134000DDE919211898CDE90121009017980F9037
:1013500016980E9015980D9014980C90119C0DA94C
:101360000EC9A0471090B0E0DDE91C23DDE91E1096
:10137000CDE90423CDE90610DDE9193218991B984F
:10138000CDE901320091039017980F9016980E90B6
:1013900015980D9014980C90119C0DA90EC9A0479A
:1013A000109092E068E043E020E0FFE7DDE91E32C4
:1013B0001D992098CDE9063205910890DDE91923A1
:1013C000DDE91B01CDE90123CDE903011898009067
:1013D00017980F9016980E9015980D9014980C90E1
:1013E000119C0DA90EC9A04710906EE0DDE91E13F7
:1013F000DDE92002CDE90613CDE90802DDE91A2373
:10140000DDE91C01CDE90223CDE90401DDE9180184
:10141000CDE9000117980F9016980E9015980D9031
:1014200014980C90119C0DA90EC9A04710904CE087
:10143000DDE92031229A1F98CDE908310A92079000
:10144000DDE91B23DDE91D01CDE90323CDE905011C
:10145000DDE919211898CDE90121009017980F9026
:1014600016980E9015980D9014980C90119C0DA93B
:101470000EC9A047109028E0DDE921322099239879
:10148000CDE9093208910B90DDE91D321C991F98B6
:10149000CDE9053204910790DDE91823DDE91A1042
:1014A000CDE90023CDE9021017980F9016980E9001
:1014B00015980D9014980C90119C0DA90EC9A04779
:1014C000109002E00020109000BF00BF0649109865
:1014D0000968086004480068001D0349086024B0DA
:1014E00010BD0000A8020020A402002000BF0A488E
:1014F000006810F8080C0849096811F8041C90FBF2
:10150000F1F00549096801F8080C03480068001F5C
:101510000149086000BF7047A402002000BF0A48CC
:10152000006850F8080C0849096851F8041C90FB41
:10153000F1F00549096841F8080C03480068001FEC
:101540000149086000BF7047A402002000BF0B489B
:10155000006830F9080C0949096831F9041C90FB4E
:10156000F1F000B20549096821F8080C0348006849
:10157000001F0249086000BF70470000A40200205D
:10158000084800680078084909680870064800683B
:10159000001D0549086003480068401C01490860B7
:1015A00070470000A8020020A40200200F48006835
:1015B00000780E490968497840EA01200B4909681A
:1015C000897840EA014009490968C97840EA016020
:1015D00007490968086006480068001D044908605A
:1015E00002480068001D014908607047A8020020F9
:1015F000A40200201049096809780F4A126852783D
:1016000041EA02210C4A1268927841EA02410A4AF0
:101610001268D27841EA02600178084A12681170B3
:1016200006490968091D054A116003490968091D31
:10163000014A116070470000A8020020A4020020A7
:101640000449096851F8040C0178024A126802F84A
:10165000041C7047A40200201049096809780F4A49
:101660001268527841EA02210C4A1268927841EAE3
:1016700002410A4A1268D27841EA0260084A0168C7
:101680001268116006490968091D054A116003497D
:101690000968091D014A116070470000A802002076
:1016A000A40200200449096851F8040C024A0168A8
:1016B000126842F8041C7047A4020020104909680F
:1016C00009780F4A1268527841EA02210C4A1268DE
:1016D000927841EA02410A4A1268D27841EA0260ED
:1016E0000188084A1268118006490968091D054ADF
:1016F000116003490968091D014A11607047000023
:10170000A8020020A40200200449096851F8040C32
:101710000188024A126822F8041C7047A4020020C3
:101720000B48006800780A490968497840EA0120B6
:1017300000B208490968088006480068001D05498C
:10174000086003480068801C014908607047000079
:10175000A8020020A402002000BF0B48006810F877
:10176000080C0949096811F8041C90FBF1F201FB0F
:1017700012000549096801F8080C03480068001FB9
:101780000149086000BF7047A402002000BF0B4859
:10179000006850F8080C0949096851F8041C90FBCE
:1017A000F1F201FB12000549096841F8080C0348F1
:1017B0000068001F0149086000BF7047A4020020B4
:1017C00000BF0B48006830F9080C0949096831F975
:1017D000041C90FBF1F201FB12000549096821F895
:1017E000080C03480068001F0149086000BF7047EB
:1017F000A402002000BF0A48006810F8080C08493D
:10180000096811F8041C48430549096801F8080CE7
:1018100003480068001F0249086000BF70470000CD
:10182000A402002000BF0A48006850F8080C0849CC
:10183000096851F8041C48430549096841F8080C37
:1018400003480068001F0249086000BF704700009D
:10185000A402002000BF0A48006830F8080C0849BC
:10186000096831F8041C484300B20549096821F8A9
:10187000080C03480068001F0149086000BF70475A
:10188000A40200207047000000BF0A48006810F85A
:10189000080C0849096811F8041C0843054909683F
:1018A00001F8080C03480068001F0249086000BFE7
:1018B00070470000A402002000BF0A48006850F8EA
:1018C000080C0849096851F8041C084305490968CF
:1018D00041F8080C03480068001F0249086000BF77
:1018E00070470000A402002000BF0A48006830F9D9
:1018F000080C0849096831F9041C084305490968BE
:1019000021F8080C03480068001F0249086000BF66
:1019100070470000A402002002480068001F01492F
:1019200008607047A402002000BF0A48006810F851
:10193000080C0849096811F8041C88400549096821
:1019400001F8080C03480068001F0249086000BF46
:1019500070470000A402002000BF0A48006850F849
:10196000080C0849096811F8041C884005490968F1
:1019700041F8080C03480068001F0249086000BFD6
:1019800070470000A402002000BF0A48006830F839
:10199000080C0849096811F8041C884000B2054980
:1019A000096821F8080C03480068001F0149086015
:1019B00000BF7047A402002000BF0A48006810F86A
:1019C000080C0849096811F8041C08410549096810
:1019D00001F8080C03480068001F0249086000BFB6
:1019E00070470000A402002000BF0A48006850F8B9
:1019F000080C0849096811F8041C084105490968E0
:101A000041F8080C03480068001F0249086000BF45
:101A100070470000A402002000BF0A48006830F9A7
:101A2000080C0849096811F8041C084105490968AF
:101A300021F8080C03480068001F0249086000BF35
:101A400070470000A40200200748006810F8040C4A
:101A50000549096851F8081C087003480068001F10
:101A60000149086070470000A40200200748006890
:101A700050F8040C0549096851F8081C086003482F
:101A80000068001F0149086070470000A4020020A0
:101A90000748006830F8040C0549096851F8081C2B
:101AA000088003480068001F014908607047000073
:101AB000A402002000BF0A48006810F8080C08497A
:101AC000096811F8041C401A0549096801F8080C56
:101AD00003480068001F0249086000BF704700000B
:101AE000A402002000BF0A48006850F8080C08490A
:101AF000096851F8041C401A0549096841F8080CA6
:101B000003480068001F0249086000BF70470000DA
:101B1000A402002000BF0A48006830F8080C0849F9
:101B2000096831F8041C401A00B20549096821F817
:101B3000080C03480068001F0149086000BF704797
:101B4000A402002000BF0A48006810F8080C0849E9
:101B5000096811F8041C48400549096801F8080C97
:101B600003480068001F0249086000BF704700007A
:101B7000A402002000BF0A48006850F8080C084979
:101B8000096851F8041C48400549096841F8080CE7
:101B900003480068001F0249086000BF704700004A
:101BA000A402002000BF0A48006830F9080C084968
:101BB000096831F9041C48400549096821F8080CF6
:101BC00003480068001F0249086000BF704700001A
:101BD000A402002000F02EF80CE007480388074814
:101BE0000288074801880748008800F02FF8642021
:101BF00008F056FDF1E70000B8020020B602002010
:101C0000B4020020B20200201CB505200A214FF4C6
:101C100080630022CDE90010044905A008F0F9FB1B
:101C2000044614B1204608F0D9FD1CBDD51B0008A0
:101C300050574D0010B5002140F2833000F048F9B4
:101C4000002140F2833000F0ADF910BD2DE9F041E4
:101C500004460F4615461E462146084800F051FB33
:101C60003946064800F04FFB2946054800F049FB7D
:101C70003146034800F047FBBDE8F0810004004016
:101C80000008004029B1064AD2690243044BDA61D8
:101C900004E0034AD2698243014BDA6170470000D5
:101CA0000010024029B1064A92690243044B9A612E
:101CB00004E0034A92698243014B9A617047000035
:101CC00000100240F0B5002100240023002500226E
:101CD000314E766806F00C0121B1042905D008299F
:101CE0002CD105E02D4E06602BE02C4E066028E03E
:101CF000294E3668012707EB9664274E3668C6F3EF
:101D00000256731C244E766806F480352DB9244E95
:101D10006643B6FBF3F606600FE01F4E766806F4E6
:101D200000362EB11F4E6643B6FBF3F6066004E0A4
:101D30001A4E6643B6FBF3F6066002E0174E0660E5
:101D400000BF00BF144E766806F0F0010909164E78
:101D5000725C0668D64046600F4E766806F4E06115
:101D6000090A114E725C4668D64086600A4E766853
:101D700006F46051C90A0C4E725C4668D640C660D3
:101D8000054E766806F44041890B084E725CC668C1
:101D9000B6FBF2F60661F0BD0010024000127A00B8
:101DA000001BB70000093D000802002018020020B7
:101DB00010B500F001F810BD00202549096841F078
:101DC0000101234A116000BF2149096801F00201A5
:101DD0000029F9D04FF480611D4A516011464968CD
:101DE00021F4803151601146096821F08071116041
:101DF0001146096821F0F84111601146096841F067
:101E0000E05111601321134A11601149096841F032
:101E100080710F4A116000BF0D49096801F000711F
:101E20000029F9D00A49496821F00301084A5160A4
:101E30001146496841F00201516005E004494968D2
:101E4000C1F3870000F003000228F7D170470000BB
:101E5000001002400020024010B506F0E5FF08F037
:101E60000FFE07F00BF810BD10B51548006840F0E4
:101E700001001349086008464068124908401049AB
:101E8000486008460068104908400D490860084647
:101E9000006820F4802008600846406820F4FE00B6
:101EA000486008460068C0F3130008604FF41F0044
:101EB0008860FFF77DFF4FF000600449086010BDA7
:101EC000001002400C00FFF8FFFFF6FE08ED00E0F6
:101ED00030B589B005460C4601210220FFF7D2FE3D
:101EE00001211820FFF7DEFE01212B48FEF7D0FE6E
:101EF0003020ADF8200018208DF8230003208DF845
:101F0000220008A92548FEF737FEADF81850ADF8B5
:101F100014400020ADF81A00ADF8160005A92048BD
:101F200000F0F4F97020ADF804000120ADF80600CF
:101F30000020ADF80A00ADF80C0001A9184800F027
:101F4000BDF801A9164800F0F7F801A9144800F0FF
:101F500049F901A9124800F095F90121104800F053
:101F60009DF808210E4800F0DDF808210C4800F02B
:101F70002BF908210A4800F07BF90821084800F0F5
:101F8000B3F90121064800F071F80121044800F07E
:101F900079F809B030BD000000081A00000C0140BB
:101FA0000004004030B589B005460C4601210420EC
:101FB000FFF768FE01211820FFF774FEC020ADF87E
:101FC000200018208DF8230003208DF8220008A996
:101FD0002448FEF7D1FDADF81850ADF814400020AC
:101FE000ADF81A00ADF8160005A91F4800F08EF9EB
:101FF0007020ADF804000120ADF806000020ADF817
:102000000A00ADF80C0001A9174800F057F801A923
:10201000154800F091F801A9134800F0E3F801A970
:10202000114800F02FF901210F4800F037F808217E
:102030000D4800F077F808210B4800F0C5F808219A
:10204000094800F015F90821074800F04DF9012171
:10205000054800F00BF80121034800F013F809B01F
:1020600030BD0000000C01400008004021B1028892
:1020700042F08002028004E0028840F27F331A407E
:102080000280704721B1028842F00102028004E020
:10209000028840F2FE331A400280704731B1B0F836
:1020A000442042F40042A0F8442005E0B0F8442067
:1020B000C2F30E02A0F844207047000070B500245F
:1020C00000220023058C4FF6FE7635400584028CF5
:1020D0008388048B4FF68F752C400D882C43751E1A
:1020E0002A400D892A434D882A43CD8885860C4D88
:1020F000A84211D1F51F2A404D892A43F51E2A40D6
:102100008D882A4347F6FF652B4047F6FF552B4045
:102110008D892B43CD892B4383800483028470BD3A
:10212000002C01400A460021018B4FF6F77319403D
:10213000114301837047000070B500240022002382
:10214000058C4FF6EF7635400584028C8388048B2E
:1021500048F6FF752C400D884FF6FF7606EA0525F8
:102160002C434FF6DF752A400D8906EA05152A43F0
:102170004D8806EA05152A43CD880587114DA842EA
:102180001BD14FF67F752A404D8906EA05152A4373
:102190004FF6BF752A408D8806EA05152A4347F693
:1021A000FF352B4047F2FF752B408D8906EA8505E8
:1021B0002B43CD8906EA85052B4383800483028463
:1021C00070BD0000002C01400A460021018B4FF237
:1021D000FF7319404FF6FF7303EA0223194301838B
:1021E0007047000070B5002400220023058C4FF6D4
:1021F000FF6635400584028C8388848B4FF68F758B
:102200002C400D882C434FF6FF552A400D894FF680
:10221000FF7606EA05252A434D8806EA05252A4366
:10222000CD888587114DA8421BD14FF2FF752A40FA
:102230004D8906EA05252A434FF6FF352A408D8849
:1022400006EA05252A4346F6FF752B4045F6FF753D
:102250002B408D8906EA05152B43CD8906EA051525
:102260002B4383808483028470BD0000002C0140D6
:102270000A460021818B4FF6F77319401143818381
:102280007047000070B5002400220023058C4EF634
:10229000FF7635400584028C8388848B48F6FF7571
:1022A0002C400D884FF6FF7606EA05252C434DF6A7
:1022B000FF752A400D8906EA05352A434D8806EA4E
:1022C00005352A43CD88A0F84050064DA84205D1D7
:1022D000C3F30D038D8906EA85152B438380848320
:1022E000028470BD002C01400A460021818B4FF210
:1022F000FF7319404FF6FF7303EA022319438183EA
:10230000704781867047018770470000028802F09D
:102310008F020280CA884B881A4303881A430280BE
:102320008A8882850A880285034A904201D10A7A06
:102330000286012282827047002C014010B50121E3
:102340008803FFF7AFFC01210420FFF7ABFC01215C
:102350000846FFF7A7FC01210148FEF799FC10BDD4
:102360000002300008B54FF40070ADF80000032003
:102370008DF8020018208DF8030069460748FEF723
:10238000FBFB4FF48060ADF8000004208DF80300E3
:1023900069460248FEF7F0FB08BD00000008014056
:1023A00010B50E4C06F040FD0221206800F028F820
:1023B00038B10221206800F015F80121084806F024
:1023C00021FC0121206800F01BF818B101212068D0
:1023D00000F008F806F052FD10BD00002C010020AE
:1023E000F00500204161704721B1826942F001028D
:1023F000826104E082694FF6FE731A408261704781
:1024000002460020D3680B400BB1012000E0002001
:1024100070471AB103690B43036102E003698B4300
:10242000036170472DE9F04385B004460D46002650
:10243000B046B14600272746E66926F03606A8884A
:10244000E9880843298908430643E661A66926F01E
:102450001F06A889698908430643A6616846FFF7F5
:1024600031FC0B48874202D1DDF80C8001E0DDF839
:1024700008802868B8FBF0F006092868B8FBF0F07F
:1024800000F00F092662C4F8249005B0BDE8F0837F
:102490000038014001464868C0B27047CAB20260C5
:1024A0007047000070B50546284603F00BFA044655
:1024B000482C03D101206649087067E04A2C03D1FB
:1024C00002206349087061E0472C03D10320604972
:1024D00008705BE04B2C03D104205D49087055E087
:1024E000452C0ED15B48008832305A490880084696
:1024F000008840F28331884248DB0846554908800D
:1025000044E0462C0BD153480088323851490880AA
:1025100008460088642839DC6420088036E0492CAD
:1025200003D105204A49087030E0412C08D14A48BF
:10253000006808B9012000E000204749086025E054
:10254000422C0AD14448001D006808B9012000E06F
:1025500000204149091D086018E0432C0AD13E487B
:102560000830006808B9012000E000203A4908312D
:1025700008600BE0442C09D137480C30006808B9DA
:10258000012000E0002034490C3108603048007818
:10259000012810D140F28330304908802D4800884E
:1025A0002F4908802B4800882E49088040F283304C
:1025B0002D49088045E02648007802280ED125489C
:1025C00000882649088040F2833025490880254943
:1025D0000880204800882449088032E01C480078A0
:1025E000032810D11B4800881C49088040F2833022
:1025F0001B490880174800881A49088040F2833038
:10260000194908801DE012480078042810D140F2D2
:102610008330124908800F4800881149088040F231
:102620008330104908800B4800880F49088008E073
:1026300000200A4908800A4908800A4908800A4996
:1026400008801CB12146284609F0AAFA002470BD72
:10265000B0020020BA02002098012242B2020020FB
:10266000B4020020B6020020B802002010B586B0E7
:1026700004464A48844204D101218803FFF712FB33
:102680000EE04748844204D101214804FFF7FAFADA
:1026900006E04448844203D101218804FFF7F2FA9E
:1026A0004FF4E13002903020ADF80C000020ADF87E
:1026B0000E00ADF810001820ADF812000020ADF8A3
:1026C000140002A92046FFF7ADFE01212046FFF7C6
:1026D0008BFE324884421DD101210420FFF7E2FA2B
:1026E0006015ADF8040003208DF8060018208DF861
:1026F000070001A92C48FEF73FFA2015ADF80400A9
:1027000003208DF8060004208DF8070001A9264853
:10271000FEF732FA224884421DD101210420FFF73E
:10272000C1FA0420ADF8040002208DF8060018203C
:102730008DF8070001A91C48FEF71EFA0820ADF825
:10274000040002208DF8060048208DF8070001A93A
:102750001548FEF711FA134884421DD101211020BB
:10276000FFF7A0FA2015ADF8040002208DF806004E
:1027700018208DF8070001A90C48FEF7FDF9E014B8
:10278000ADF8040002208DF8060048208DF80700FF
:1027900001A90648FEF7F0F906B010BD0038014067
:1027A0000044004000480040000801400010014083
:1027B000014609B900207047C8B220B1C8B20E4A1C
:1027C000105C401CF7E701F47F4028B10A48C1F3D0
:1027D0000722805C0930EEE701F47F0028B106484B
:1027E000C1F30742805C1130E5E7034800EB11605C
:1027F00000781930DFE70000DBBF000870B5044641
:1028000006480068FFF7D4FF451E054850F835001C
:10281000A0F114062560304670BD0000F0000020D5
:10282000F004002003490868884201D00120704765
:102830000020FCE7000100202DE9F0438BB00546A5
:102840008946174600242DB94FF49B721C491DA0E0
:1028500005F08EFB2FB940F2371219491AA005F086
:1028600087FB00E0641C285D202804D0285D09282F
:1028700001D04C45F6D324B94FF0FF300BB0BDE882
:10288000F0832146284604F0A9FC064616B94FF00D
:10289000FF30F3E7282101A8FDF7A8FE01AA494669
:1028A000284604F00FFD8046B8F1000F02D14FF02A
:1028B000FF30E3E701A94046B04738600020DDE77C
:1028C0009CCA0008636D64007265747000000000AB
:1028D0002DE9F0410546884616462F4627B937228E
:1028E000084909A005F044FB34461CB94FF0FF30FD
:1028F000BDE8F08162882188386C036828469847D3
:102900000020F5E755C8000870696E20213D20526F
:10291000545F4E554C4C00002DE9F0470546894662
:1029200016461F46A846B8F1000F04D118220A49DE
:102930000AA005F01DFB34460CB1042F02D0002084
:10294000BDE8F0872188D8F8400082682846904783
:1029500060803846F4E7000040C8000870696E20C7
:10296000213D2052545F4E554C4C00002DE9F0475C
:102970000546894616461F46A846B8F1000F04D101
:1029800027220A490AA005F0F3FA34460CB1042FB5
:1029900002D00020BDE8F08762882188D8F8400086
:1029A0004368284698473846F4E700004AC80008BC
:1029B00070696E20213D2052545F4E554C4C0000F2
:1029C00070B5044624B95322144915A005F0D0FA75
:1029D000A06A0078232809D1A16AE069884205D954
:1029E000D4E90A010844E16988420CD2214611A0C9
:1029F00006F0AAFA03F076FEFDF712FC054600BFCA
:102A0000002DFDD108E0A06A2030E169814203D8A1
:102A100021460FA006F098FA70BD0000B9C1000869
:102A200074687265616420213D2052545F4E554C9C
:102A30004C0000007468726561643A2573207374F9
:102A400061636B206F766572666C6F770A000000B9
:102A50007761726E696E673A2025732073746163C3
:102A60006B20697320636C6F736520746F20656ED3
:102A700064206F6620737461636B206164647265A7
:102A800073732E0A000000002DE9FC5F04468B469C
:102A900016461F46DDE90C9ADDE90E5804F11400D4
:102AA0004060006000BF26626762C4F82890C4F8E6
:102AB0002CA02321D4E90A0206F05BFCD4E90A3CED
:102AC00063441A1F174BD4E9080106F057F9E06177
:102AD000202D04DB9522144914A005F049FA303466
:102AE000A57165710020A060C4F81480C4F8188036
:102AF00020602071A064E064303C00902346144ABA
:102B00002146019004F14C0008F000F900BF114883
:102B1000006818B120460F490968884700BF0020A7
:102B2000BDE8FC9F65A4000807C200087072696FC9
:102B300072697479203C2052545F54485245414494
:102B40005F5052494F524954595F4D41580000005F
:102B50007DA90008140100202DE9F04704460E4627
:102B600017469846DDF8209084F80990607A20F0A6
:102B700001006072E66127620020A062C4F8248030
:102B8000002506E004F1140101EBC50006F016FA79
:102B90006D1C012DF6DBBDE8F08710B50246002064
:102BA00001460EE002F1140303EBC100D0E900433B
:102BB0006360D0E9003423604060006000BF481CBF
:102BC00001460129EEDB10BD10B50948006868B95F
:102BD00000BF08A006F0B8F90A4806F0B5F90AA047
:102BE00006F0B2F900BF01200149086010BD0000E5
:102BF0002C0200201B5B33336D5B572F5541525421
:102C00005D20000028CD00081B5B306D0A0000002D
:102C10002DE9F04706460F4615462EB94FF483724C
:102C20001E491FA005F0A4F9A846F46C2CB94FF476
:102C300085721A491FA005F09BF928E0FDF7F0FA0C
:102C40008246E088A188884205D1A06818B950461C
:102C5000FDF7EAFA1DE0E188206810F80190E088AD
:102C6000401CE080E188B06CC0F38F20814201DB22
:102C70000020E080A068012801D10020A06050461B
:102C8000FDF7D2FA87F800907F1C6D1E00BF002D63
:102C9000D4D100BFA8EB0500BDE8F087DDC800086F
:102CA00073657269616C20213D2052545F4E554C12
:102CB0004C00000072785F6669666F20213D2052EB
:102CC000545F4E554C4C00002DE9F04105460E4630
:102CD00014462DB94FF49B721149124805F048F97A
:102CE000A0462F6D2FB94FF49D720D490EA005F02F
:102CF0003FF90FE03178286C826828469047401CE5
:102D000028B94FF0FF31384605F0D6F902E0761CBD
:102D1000641E00BF002CEDD1A8EB0400BDE8F081DB
:102D2000ECC80008802D0008747820213D20525402
:102D30005F4E554C4C0000002DE9F04106460F4611
:102D4000144626B9D3220D490DA005F011F9A0466D
:102D50000DE0306CC168304688470546681C00B9F4
:102D600007E03D707F1C641E0A2D00D101E0002C9D
:102D7000EFD100BFA8EB0400BDE8F081BDC800089A
:102D800073657269616C20213D2052545F4E554C31
:102D90004C0000002DE9F04104460E46154624B9CA
:102DA000E7220F490F4805F0E3F82F4612E030788C
:102DB0000A2808D1207E00F0400020B1206C0D21AF
:102DC0008268204690473178206C82682046904780
:102DD000761C6D1E002DEAD1781BBDE8F081000045
:102DE000CDC80008802D00080246002106E0012021
:102DF0008840904201D108467047491C2029F6DBE3
:102E00004FF0FF30F8E7000070B5FFF72DF81748D6
:102E100000686422B0FBF2F1481EB0F1807F00D35D
:102E20001BE0481E4FF0E022506150170F2200288F
:102E300007DA13071D0E0E4B00F00F04241F1D555B
:102E400003E013071C0E0B4B1C5400BF00204FF077
:102E5000E02290610720106100BF4FF0E020006980
:102E600040F004004FF0E021086170BDF401002043
:102E700018ED00E000E400E010B520A006F064F8D2
:102E80002148017821A006F05FF81F48007800F083
:102E9000010010B123A006F057F81B48007800F09D
:102EA000020010B122A006F04FF81748007800F099
:102EB000040010B121A006F047F81348007800F094
:102EC000080010B121A006F03FF80F48007800F08C
:102ED000100010B120A006F037F80B48007800F081
:102EE000800030B108480F3001681DA006F02CF8B2
:102EF00002E01FA006F028F810BD000062757320E4
:102F00006661756C743A0A0029ED00E05343425F34
:102F1000434653525F424653523A30782530325836
:102F20002000000049425553455252200000000045
:102F3000505245434953455252200000494D50528A
:102F4000454349534552522000000000554E53540A
:102F50004B4552522000000053544B455252200022
:102F60005343422D3E424641523A253038580A00DA
:102F70000A00000070B504460D4602F061FF002013
:102F800070BD70B504460D4603F0ACFB002070BD6B
:102F9000024613680BB9116070471068884202D965
:102FA00048601160F8E7106807E043688B4200D979
:102FB00005E0436803B902E040680028F5D100BF8E
:102FC00043680BB143684B60416000BFE4E730B534
:102FD00003464A681C688C4201D1002009E0186849
:102FE00004E044688C4200D102E040680028F8D137
:102FF00000BFE0B10468044408348C4217D172B1B8
:103000000C680C440834944209D10C6815682C44AF
:10301000103405682C4404605468446014E005686A
:103020000C6808342C4404604C6844600CE05AB1CD
:103030000C680C440834944206D10D6814680834B6
:103040002C440C6054684C6030BD024610688842C5
:1030500004D14B68136000234B607047106806E092
:1030600043688B4202D14B68436002E0406800280D
:10307000F6D100BF00BFF0E700F108035A1803685B
:10308000083B5B1A136001604368536042607047FD
:1030900010B50446002C01F02183206910B120698D
:1030A000FFF7F6FF20781C2881F00E83DFE810F090
:1030B0000C0B1C00D901EF01F0011B021A024202A5
:1030C0006A029502C002EB02160341036C039703E8
:1030D000C203ED031A0439040C0BE70422065B0754
:1030E0000E09D80A0B0BC10AA07800F0040048B3FF
:1030F00000BF2420FA4909680870F9480068401C9C
:10310000F749086000BF00BF00BFA068007A0968E7
:103110000870A0680089000AF14909684870A06831
:103120008068000CEE4909688870A0688068000E0D
:10313000EB490968C87000BFE9480068001DE8490C
:1031400008608CE1A07800F0020000287ED0A06822
:1031500000287CD0017AC91E0C293ED2DFE801F09C
:1031600006077C3E3F7D78797E7A7B7F00BFA17821
:1031700001F0080151B100BF2421D94A1268117031
:10318000D7490968491CD64A11600AE000BF2521C9
:10319000D34A12681170D2490968491CD04A11609B
:1031A00000BF00BF00BF017BCD4A1268117081894A
:1031B000090ACB4A12685170C168090CC84A1268E2
:1031C0009170C168090EC64A1268D17000BFC44927
:1031D0000968091DC24A116000BF77E000BFA178ED
:1031E00001F0080151B100BF2421BD4A12681170DD
:1031F000BB490968491CBA4A11600AE000BF262190
:10320000B74A12681170B6490968491CB44A11607E
:1032100000BF00BF00BF017BB14A126811708189F5
:10322000090AAF4A12685170C168090CAC4A1268A9
:103230009170C168090EAA4A1268D17000BFA849EE
:103240000968091DA64A116000BF3FE040E03EE06A
:1032500000BF00BF00BF00BF00BF00BF00BFA1781C
:1032600001F0080151B100BF24219D4A126811707C
:103270009B490968491C9A4A11600AE000BF27214E
:10328000974A1268117096490968491C944A11605E
:1032900000BF00BF00BF017B914A12681170818995
:1032A000090A8F4A12685170C168090C8C4A126869
:1032B0009170C168090E8A4A1268D17000BF8849AE
:1032C0000968091D864A116000BF00BF00BFC6E043
:1032D000A06800287ED0417CC91E0C2940D2DFE8BE
:1032E00001F00607804041817C7D827E7F8300BFA4
:1032F000A17801F0080151B100BF2421784A126879
:10330000117077490968491C754A11600AE000BFCD
:103310002521734A1268117071490968491C704A65
:10332000116000BF00BF00BF00F114016C4A1268B9
:103330001170090A6A4A1268517000F11401090CEF
:10334000674A1268917000F11401090E644A12680C
:10335000D17000BF62490968091D614A116000BF50
:103360007BE000BFA17801F0080151B100BF24212A
:103370005B4A126811705A490968491C584A116021
:103380000AE000BF2621564A1268117054490968A4
:10339000491C534A116000BF00BF00BF00F1140177
:1033A0004F4A12681170090A4D4A1268517000F1B3
:1033B0001401090C4A4A1268917000F11401090EB7
:1033C000474A1268D17000BF45490968091D444A3F
:1033D000116000E042E000BF3FE000BF00BF00BF5F
:1033E00000BF00BF00BF00BFA17801F0080151B1CC
:1033F00000BF24213A4A1268117039490968491CF2
:10340000374A11600AE000BF2721354A126811705F
:1034100033490968491C324A116000BF00BF00BF30
:1034200000F114012E4A12681170090A2C4A126820
:10343000517000F11401090C294A1268917000F1D1
:103440001401090E264A1268D17000BF2449096888
:10345000091D234A116000BF00BF00BF00BF01F07B
:1034600037B900BF22201E49096808701C4800684F
:10347000401C1B49086000BF00BF20790968087024
:1034800017480068401C1649086000BFE7E700BF06
:1034900000BF242012490968087011480068401CC8
:1034A0000F49086000BF00BF00BF2079096808709D
:1034B000A088000A0A49096848706068000C084939
:1034C000096888706068000E05490968C87000BF07
:1034D00003480068001D0249086000BFBFE7000004
:1034E0005402002000BF00BF2420FD490968087075
:1034F000FB480068401CFA49086000BF00BF00BFDD
:10350000207909680870A088000AF54909684870A0
:103510006068000CF249096888706068000EF04924
:103520000968C87000BFEE480068001DEC490860DB
:1035300000BF94E76078012809D100BFE849096815
:103540000870E7480068401CE549086019E06078A9
:10355000022809D100BFE24909680870E048006804
:10356000401CDF4908600CE06078032809D100BFE7
:10357000DB4909680870DA480068401CD8490860CF
:1035800000BF6CE7607801280AD100BF0420D4494D
:1035900009680870D2480068401CD14908601BE0E7
:1035A000607802280AD100BF0520CD49096808705B
:1035B000CB480068401CCA4908600DE060780328C9
:1035C0000AD100BF0620C64909680870C4480068CF
:1035D000401CC349086000BF41E7607801280AD158
:1035E00000BF0D20BE4909680870BD480068401C36
:1035F000BB4908601BE0607802280AD100BF0E209A
:10360000B74909680870B6480068401CB4490860AA
:103610000DE0607803280AD100BF0F20B049096887
:103620000870AF480068401CAD49086000BF16E74D
:10363000607801280AD100BF0720A94909680870ED
:10364000A7480068401CA64908601BE06078022873
:103650000AD100BF0820A24909680870A048006884
:10366000401C9F4908600DE0607803280AD100BF24
:1036700009209B490968087099480068401C9849CE
:10368000086000BFEBE6607801280AD100BF0A207D
:1036900093490968087092480068401C9049086086
:1036A0001BE0607802280AD100BF0B208C49096812
:1036B00008708B480068401C894908600DE06078FC
:1036C00003280AD100BF0C20854909680870844886
:1036D0000068401C8249086000BFC0E6607801288D
:1036E0000AD100BF10207E49096808707C48006834
:1036F000401C7B4908601BE0607802280AD100BFAB
:10370000112077490968087075480068401C7449A1
:1037100008600DE0607803280AD100BF12207049CC
:10372000096808706E480068401C6D49086000BF59
:1037300095E6607801280AD100BF1320684909681E
:10374000087067480068401C654908601BE06078A5
:1037500002280AD100BF1420614909680870604836
:103760000068401C5E4908600DE0607803280AD1BB
:1037700000BF15205A490968087059480068401C64
:103780005749086000BF6AE6607801280AD100BF87
:10379000162053490968087051480068401C504978
:1037A00008601BE0607802280AD100BF17204C494E
:1037B000096808704A480068401C494908600DE0E3
:1037C000607803280AD100BF1820454909680870AD
:1037D00043480068401C4249086000BF3FE66078EB
:1037E00001280AD100BF19203D49096808703C48EA
:1037F0000068401C3A4908601BE0607802280AD142
:1038000000BF1A2036490968087035480068401C16
:10381000334908600DE0607803280AD100BF1B20FF
:103820002F49096808702E480068401C2C49086020
:1038300000BF14E6607801280AD100BF1C20284987
:103840000968087026480068401C254908601BE08C
:10385000607802280AD100BF1D202149096808703C
:103860001F480068401C1E4908600DE0607803286E
:103870000AD100BF1E201A4909680870184800685C
:10388000401C1749086000BFE9E5607801280AD1AB
:1038900000BF1F2012490968087011480068401CC9
:1038A0000F4908601BE0607802280AD100BF202081
:1038B0000B49096808700A480068401C08490860FC
:1038C0000DE0607803280AD100BF2120044909686F
:1038D000087003480068401C0149086000BFBEE54D
:1038E0005402002000212269D2B12269D06801E08F
:1038F000491CC0680028FBD100BF2C22FC4B1B6870
:103900001A70FB4A1268521CF94B1A6000BF00BFC4
:103910001B681970F64A1268521CF54B1A6000BFFA
:103920009DE52069C0B320690078012850D1206945
:103930004078012804D0022818D0032843D12CE075
:1039400000BF2820EA4909680870E9480068401C5F
:10395000E749086000BF00BF2D2009680870E448EF
:103960000068401CE249086000BF30E000BF292029
:10397000DF4909680870DE480068401CDC490860BF
:1039800000BF00BF2E2009680870D9480068401C9D
:10399000D749086000BF1AE01AE000BF2A20D449C6
:1039A00009680870D2480068401CD149086000BF0F
:1039B00000BF2F2009680870CD480068401CCC4922
:1039C000086000BF03E0032000F0D0FE00BF55E018
:1039D00020690078192851D12069407800F00F0043
:1039E000012804D0022818D0032842D12BE000BFC0
:1039F0002820BF4909680870BD480068401CBC49C0
:103A0000086000BF00BF2D2009680870B848006832
:103A1000401CB749086000BF2FE000BF2920B4490F
:103A200009680870B2480068401CB149086000BFCE
:103A300000BF2E2009680870AD480068401CAC49E2
:103A4000086000BF19E000BF2A20A9490968087072
:103A5000A7480068401CA649086000BF00BF2F208F
:103A600009680870A2480068401CA149086000BFAE
:103A700003E0032000F07AFE00BF00BFEFE42069FE
:103A800000287DD020690078012879D121698868D3
:103A90006178012904D002295DD003295AD1BDE003
:103AA00000BF2521924A1268117091490968491C8A
:103AB0008F4A116000BF00BF00BF00F114011268FF
:103AC0001170090A8A4A1268517000F11401090C38
:103AD000874A1268917000F11401090E844A126835
:103AE000D17000BF82490968091D814A116000BF79
:103AF00000BF2221126811707D490968491C7C4A67
:103B0000116000BF00BF0121126811707849096877
:103B1000491C774A116000BF00BF01211268117073
:103B200073490968491C724A116000BF00BF28210F
:103B3000126811706E490968491C6D4A116000BF16
:103B400000BF2F211268117069490968491C684A31
:103B5000116000BFC9E000BF2621654A12681170DC
:103B600063490968491C624A116000BF00BF00BF79
:103B700000F1140112681170090A5D4A126800E030
:103B8000B5E0517000F11401090C594A12689170A6
:103B900000F11401090E564A1268D17000BF544951
:103BA0000968091D524A116000BF00BF2321126835
:103BB00011704F490968491C4D4A116000BF00BF90
:103BC00000BF0121126811700021494A126851702A
:103BD00000BF47490968891C454A116000BF00BF02
:103BE00002211268117042490968491C404A11605B
:103BF00000BF00BF2921126811703D490968491CA6
:103C00003B4A116000BF00BF2F2112681170384974
:103C10000968491C364A116000BF66E000BF2721D1
:103C2000334A1268117032490968491C304A1160E0
:103C300000BF00BF00BF00F1140112681170090A33
:103C40002B4A1268517000F11401090C284A1268BD
:103C5000917000F11401090E254A1268D17000BF5D
:103C600023490968091D224A116000BF00BF2421B1
:103C7000126811701E490968491C1D4A116000BF75
:103C800000BF00BF0121126811700021184A12689C
:103C90005170174A12689170154A1268D17000BFAE
:103CA00013490968091D124A116000BF00BF0321B2
:103CB000126811700E490968491C0D4A116000BF55
:103CC00000BF2A211268117009490968491C084A75
:103CD000116000BF00BF2F211268117004490968EC
:103CE000491C034A116000BF00BF00BF00BF20E4B1
:103CF00054020020206900287ED020690078012825
:103D00007AD1216988686178012904D002295DD0BF
:103D100003295AD1BDE000BF2521FE4A1268117067
:103D2000FC490968491CFB4A116000BF00BF00BF85
:103D300000F1140112681170090AF64A12685170F4
:103D400000F11401090CF34A1268917000F114019A
:103D5000090EF04A1268D17000BFEE490968091DCA
:103D6000EC4A116000BF00BF222112681170E949BE
:103D70000968491CE74A116000BF00BF01211268B1
:103D80001170E4490968491CE24A116000BF00BF94
:103D9000042112681170DF490968491CDD4A11606D
:103DA00000BF00BF282112681170DA490968491C58
:103DB000D84A116000BF00BF2F2112681170D54989
:103DC0000968491CD34A116000BFC9E000BF262121
:103DD000D04A12681170CF490968491CCD4A116058
:103DE00000BF00BF00BF00F1140112681170090A82
:103DF000C84A1268517000E0B4E000F11401090CE7
:103E0000C44A1268917000F11401090EC14A126887
:103E1000D17000BFBF490968091DBE4A116000BFCB
:103E200000BF232112681170BA490968491CB94AB8
:103E3000116000BF00BF00BF012112681170002196
:103E4000B44A1268517000BFB2490968891CB14A6E
:103E5000116000BF00BF052112681170AD490968EB
:103E6000491CAC4A116000BF00BF292112681170C3
:103E7000A8490968491CA74A116000BF00BF2F214B
:103E800012681170A3490968491CA24A116000BF59
:103E900066E000BF27219F4A126811709D4909689A
:103EA000491C9C4A116000BF00BF00BF00F1140113
:103EB00012681170090A974A1268517000F11401D2
:103EC000090C944A1268917000F11401090E914A8C
:103ED0001268D17000BF8F490968091D8D4A1160B1
:103EE00000BF00BF2421126811708A490968491C6B
:103EF000884A116000BF00BF00BF01211268117025
:103F00000021844A12685170824A12689170814A75
:103F10001268D17000BF7F490968091D7D4A116090
:103F200000BF00BF0621126811707A490968491C58
:103F3000784A116000BF00BF2A21126811707549CC
:103F40000968491C734A116000BF00BF2F21126825
:103F5000117070490968491C6E4A116000BF00BFAA
:103F600000BF00BFB4E3206900287DD0206900783D
:103F7000012879D1216988686178012904D0022952
:103F800073D0032972D110E100BF2421614A126865
:103F9000117060490968491C5E4A116000BF00BF8A
:103FA00000BF00F1140112681170090A594A126821
:103FB000517000F11401090C564A1268917000F119
:103FC0001401090E534A1268D17000BF51490968A3
:103FD000091D504A116000BF00BF252112681170F1
:103FE0004C490968491C4B4A116000BF00BF00BF23
:103FF00000F1140112681170090A464A12685170E2
:1040000000F11401090C434A1268917000F1140187
:10401000090E404A1268D17000BF3E490968091D67
:104020003C4A116000BF00BF22211268117039495B
:104030000968491C374A116000BF00BF012112689E
:10404000117034490968491C324A116000BF00BF31
:104050000121126811702F490968491C2D4A11600D
:1040600000BF00BF282102E02FE113E02BE112681E
:10407000117028490968491C264A116000BF00BF19
:104080002B211268117023490968491C214A1160CB
:1040900000BF18E100BF24211E4A126811701D499B
:1040A0000968491C1B4A116000BF00BF00BF00F136
:1040B000140112681170090A164A1268517000F151
:1040C0001401090C134A1268917000F11401090ED1
:1040D000104A1268D17000BF0E490968091D0D4AC7
:1040E000116000BF00BF26211268117009490968DC
:1040F000491C084A116000BF00BF00BF00F1140155
:1041000012681170090A034A1268517000F1140113
:10411000090C01E054020020FC4A1268917000F181
:104120001401090EF94A1268D17000BFF7490968F5
:10413000091DF64A116000BF00BF232112681170EB
:10414000F2490968491CF14A116000BF00BF00BF75
:104150000121126811700021EC4A1268517000BFF1
:10416000EA490968891CE94A116000BF00BF0221C1
:1041700012681170E5490968491CE44A116000BFE2
:1041800000BF292112681170E0490968491CDF4A03
:10419000116000BF00BF2B2112681170DB49096854
:1041A000491CDA4A116000BF8DE000BF2421D74AC4
:1041B00012681170D5490968491CD44A116000BFC2
:1041C00000BF00BF00F1140112681170090ACF4A44
:1041D0001268517000F11401090CCC4A12689170F8
:1041E00000F11401090EC94A1268D17000BFC74915
:1041F0000968091DC54A116000BF00BF2721126868
:104200001170C2490968491CC04A116000BF00BF53
:1042100000BF00F1140112681170090ABB4A12684C
:10422000517000F11401090CB84A1268917000F144
:104230001401090EB54A1268D17000BFB34909686C
:10424000091DB24A116000BF00BF2421126811701D
:10425000AE490968491CAD4A116000BF00BF00BFEC
:104260000121126811700021A84A12685170A74AF2
:1042700012689170A54A1268D17000BFA3490968FD
:10428000091DA24A116000BF00BF0321126811700E
:104290009E490968491C9D4A116000BF00BF2A2140
:1042A0001268117099490968491C984A116000BF49
:1042B00000BF2B211268117094490968491C934A68
:1042C000116000BF00BF00BF00BF01E220690028ED
:1042D0007ED02069007801287AD1216988686178C8
:1042E000012904D0022974D0032973D110E100BF41
:1042F0002421864A1268117084490968491C834A3E
:10430000116000BF00BF00BF00F1140112681170FE
:10431000090A7E4A1268517000F11401090C7B4AA7
:104320001268917000F11401090E784A1268D17078
:1043300000BF76490968091D744A116000BF00BFBB
:1043400025211268117071490968491C6F4A116072
:1043500000BF00BF00BF00F1140112681170090A0C
:104360006A4A1268517000F11401090C674A126818
:10437000917000F11401090E644A1268D17000BFF7
:1043800062490968091D614A116000BF00BF22210E
:10439000126811705D490968491C5C4A116000BFD0
:1043A00000BF01211268117058490968491C574A19
:1043B000116000BF00BF04211268117053490968E1
:1043C000491C524A116000BF00BF2821126802E058
:1043D0002EE112E02AE111704C490968491C4B4A50
:1043E000116000BF00BF2B21126811704749096896
:1043F000491C464A116000BF18E100BF2421434A0E
:104400001268117041490968491C404A116000BF97
:1044100000BF00BF00F1140112681170090A3B4A85
:104420001268517000F11401090C384A1268917039
:1044300000F11401090E354A1268D17000BF3349EA
:104440000968091D314A116000BF00BF26211268AA
:1044500011702E490968491C2C4A116000BF00BF29
:1044600000BF00F1140112681170090A274A12688E
:10447000517000F11401090C244A1268917000F186
:104480001401090E214A1268D17000BF1F49096842
:10449000091D1E4A116000BF00BF23211268117060
:1044A0001A490968491C194A116000BF00BF00BFC2
:1044B0000121126811700021144A1268517000BF66
:1044C00012490968891C114A116000BF00BF05210B
:1044D000126811700D490968491C0C4A116000BF2F
:1044E00000BF29211268117008490968491C074A50
:1044F000116000BF00BF2B211268117003490968C9
:10450000491C024A116000BF90E0000054020020E4
:1045100000BF2421724A1268117071490968491C50
:104520006F4A116000BF00BF00BF00F114011268A4
:104530001170090A6A4A1268517000F11401090CDD
:10454000674A1268917000F11401090E644A1268FA
:10455000D17000BF62490968091D614A116000BF3E
:1045600000BF2721126811705D490968491C5C4A27
:10457000116000BF00BF00BF00F11401126811708C
:10458000090A574A1268517000F11401090C544A83
:104590001268917000F11401090E514A1268D1702D
:1045A00000BF4F490968091D4D4A116000BF00BF97
:1045B0002421126811704A490968491C484A11604F
:1045C00000BF00BF00BF0121126811700021444AE2
:1045D00012685170424A12689170414A1268D17053
:1045E00000BF3F490968091D3D4A116000BF00BF77
:1045F0000621126811703A490968491C384A11604D
:1046000000BF00BF2A211268117035490968491C92
:10461000334A116000BF00BF2B211268117030496E
:104620000968491C2E4A116000BF00BF00BF00BFCF
:104630004EE000BF00BF00202949096808702849E2
:104640000968487026490968887025490968C87052
:1046500000BF23480068001D2149086000BF37E003
:10466000A07800F0080068BB6078012804D0022818
:104670000ED0032824D117E000BF2D201849096867
:10468000087017480068401C1549086000BF18E012
:1046900000BF2E2012490968087011480068401CAC
:1046A0000F49086000BF0CE000BF2F200C490968CB
:1046B00008700B480068401C0949086000BF00E012
:1046C00000BF00BF04E003E0082000F04FF800BF87
:1046D00000BFE06810B1E068FEF7DAFC002010BD12
:1046E0005402002070B506460021304600F04AFF13
:1046F00080211448FBF758FF4FF480711248FBF7F4
:1047000075FF1148114908600E4811490860344688
:1047100013E02546EC680020E8602846FEF7B8FC68
:1047200054B100BF2B200A49096808700848006886
:10473000401C0749086000BF00BF002CE9D10020E1
:1047400070BD00008C0A00208C090020500200205F
:1047500054020020014800787047000058020020F1
:1047600000200149087070475802002001460248A5
:1047700001700020704700005802002001460248E6
:1047800050F82100704700005C02002010B504467C
:10479000204600F0D7F900F02FF9FFF7E1FF0020E5
:1047A00010BD000010B51448006890F82100C0F357
:1047B000400020B9002011490870084610BD10487B
:1047C000006838B180220E4801680C48FBF735FFBD
:1047D0000A48F3E702F070FD20B10AA10748FBF791
:1047E000D2FD03E009A10548FBF7CDFD09A103486F
:1047F000FBF757FE0148E1E7400200208806002051
:10480000440200206D7368200000000066696E732A
:10481000682000003E00000008B5002000900E480F
:10482000006820B9AF220D490DA003F0A1FB05E0FF
:104830004FF0FF310848006805F076F9064909682D
:1048400001236A46D1F8A802991E03F06DFE0128E3
:10485000EED19DF8000008BD40020020E6C9000826
:104860007368656C6C20213D2052545F4E554C4C52
:104870000000000070B50546E81C20F0030518484C
:10488000046800E0646824B105F1080021688142F1
:10489000F8D974B900F03EF81148046800E0646883
:1048A00024B105F1080021688142F8D30CB9002039
:1048B00070BD29462046FEF7DFFB21460848FEF77B
:1048C000C4FB0020606021460648FEF761FB2946D4
:1048D00004F10800FBF78AFE04F10800E8E7000095
:1048E000980200209C02002070B50446A4F108053F
:1048F00029460648FEF7A9FB29460548FEF748FB6E
:1049000029460348FEF763FB70BD00009C020020AF
:104910009802002070B50026124805681EE00024A9
:1049200011E004EB4400104901EBC000407C48B1A9
:1049300004EB440001EBC000416905F1080081422D
:1049400000D102E0641C082CEBDB00BF2E466D6832
:10495000082C03D106F10800FFF7C6FF002DDED1B9
:1049600070BD00009C020020CC08002010B5802102
:104970000748FBF73BFE06480649086078200968AF
:10498000086000200349096848600349086010BDB9
:104990000C070020980200209C02002010B504465D
:1049A000204600F0CFF800F027F800F09BFEFFF75C
:1049B000D7FEFFF7DBFF002010BD000002460021FC
:1049C00007E001EB81000B4B13F8200000B902E077
:1049D000491C1029F5DB00BF102901D100207047C8
:1049E00001EB8100034B03F8202001EB810003EB76
:1049F0008000F4E78C07002010B54FF4A071024846
:104A0000FBF7F4FD002010BD8C07002070B50546B3
:104A10000220FFF7D3FF044624B90620FFF7A6FEC5
:104A2000002070BD25712046FBE72DE9F0410746C7
:104A3000002400260025384600F09AFE04466CB992
:104A4000384600F0AFFA044634B9384600F012FA9E
:104A5000044624B1042602E0022600E00126D4B177
:104A60000120FFF7ABFF05462DB90620FFF77EFEBC
:104A70000020BDE8F081012E04D0022E04D0042EC7
:104A800006D103E0AC6003E0AC6001E0AC6000BFC5
:104A900000BFAE7002E00D20FFF768FE2846E8E791
:104AA00070B505460320FFF789FF044624B90620A8
:104AB000FFF75CFE002070BD65602046FBE770B527
:104AC00005460420FFF77AFF044624B90620FFF7C5
:104AD0004DFE002070BD65602046FBE770B50546C1
:104AE0000620FFF76BFF044624B90620FFF73EFEC1
:104AF000002070BD65602046FBE770B505460520C7
:104B0000FFF75CFF044624B90620FFF72FFE0020C4
:104B100070BD2846FBF75BFC461C3046FFF7AAFE3B
:104B200060602846FBF753FC06463246294660681B
:104B3000FBF783FD2846FBF74AFC002261680A5414
:104B40002046E5E710B504469C212046FBF74EFDC4
:104B5000002010BD2DE9F04104460F4600252760D6
:104B6000201D216800F0F8FC201D00F0FFFC064627
:104B700057E01F2E13D101216171D4F8980038B18C
:104B8000204602F067FEE860E86838B1ED6805E0AD
:104B9000204602F05FFE0546C4F8985038E0142E17
:104BA00009D0152E07D0162E05D0172E03D0182E9B
:104BB00001D0192E13D101216171D4F8980038B1B8
:104BC000204603F0C0F8E860E86800B3ED681EE036
:104BD000204603F0B8F80546C4F8985017E00121C4
:104BE0006171D4F8980060B1204602F033FEE860AD
:104BF000E86808B1ED680AE0201D00F0B7FC064641
:104C000005E0204602F026FE0546C4F8985000BF95
:104C100000BFD4F8980000B907E0201D00F0A6FC02
:104C20000646212E01D0202EA3D100BFBDE8F08181
:104C30002DE9F04704460F462648006890F8210009
:104C400000F0010010B124A004F07EF9394620469E
:104C5000FFF780FFFFF77EFD20B9D4F89800FFF73B
:104C600041FD09E0FFF776FD0646FFF787FD0546A3
:104C700029461AA004F068F9FFF76CFD28BB00F084
:104C800097FD00F0F1F8C6B2202E12DD7E2E10DA6C
:104C900000F0EAF8814600F0E7F8824600F0E4F818
:104CA00000F0FF084B46524641460DA004F04CF977
:104CB0000AE000F0D9F8804600F0D6F88146424676
:104CC00049460CA004F040F900BF2046FFF75EFD06
:104CD000BDE8F087400200200A00000025730A00AA
:104CE00009272563272C2025642C2030782530388F
:104CF000780A00000925642C203078253038780A9D
:104D00000000000070B504460D460748006820B951
:104D1000BE22064906A003F02BF90348006804F000
:104D2000BBFE002070BD000040020020F4C9000856
:104D30007368656C6C20213D2052545F4E554C4C7D
:104D40000000000070B5054600242548006820B921
:104D5000D122244924A003F00BF9284603F0DEFAFF
:104D6000044624B9294625A004F0EEF870BD1C487D
:104D70000068D0F8A802A04200D1F7E740F2431142
:104D8000204603F009FB48BB15480068D0F8A8028C
:104D900060B113490968D1F8A80203F069FA104913
:104DA0000968D1F8A802002103F032FC50210C4818
:104DB000006800F51570FBF719FC00200849096828
:104DC000A1F8A40206490968A1F8A60204480068EF
:104DD000C0F8A8421149204603F01AFC00BFC5E7FD
:104DE0004002002001CA00087368656C6C20213DF8
:104DF0002052545F4E554C4C0000000066696E73A3
:104E0000683A2063616E206E6F742066696E64205C
:104E10006465766963653A2025730A00054D0008CC
:104E200010B504460948006820B9A322084909A022
:104E300003F09EF80548006890F8210064F34100F3
:104E40000249096881F8210010BD000040020020DD
:104E5000D0C900087368656C6C20213D2052545FF6
:104E60004E554C4C0000000001480068704700009F
:104E70008C0900202DE9F04106461248056808E03B
:104E800031462868FBF704FC10B92846BDE8F081DC
:104E90000C350D4800688542F2D30C4804680CE0DC
:104EA0003046FBF794FA07463A4631466068FBF70E
:104EB000ADFA08B9201DE9E72468002CF0D10020E4
:104EC000E4E700003002002034020020AC020020A1
:104ED000024A1060024A1160704700003002002050
:104EE000340200207CB5002519491A48FFF7F0FF6D
:104EF00019491A4800F04CF84FF42B71012003F0C7
:104F000071F8174908600846006820B915A004F038
:104F10001BF8681E7CBD0A2014214FF48063002218
:104F2000CDE90010154916A005F073FA04460023D8
:104F30001A4615A10A48006804F078FD0120FFF721
:104F40006FFF1CB115B9204605F048FC0020E1E7D1
:104F5000D0D6000844D5000800D70008F0D60008D5
:104F6000400200206E6F206D656D6F727920666F54
:104F700072207368656C6C0A000000000150000824
:104F8000747368656C6C00007368727800000000D0
:104F9000024A1060024A1160704700003802002087
:104FA0003C0200202DE9F04106461248056808E061
:104FB00031462868FBF76CFB10B92846BDE8F08144
:104FC00010350D4800688542F2D30C4804680CE0A7
:104FD0003046FBF7FCF907463A4631466068FBF776
:104FE00015FA08B9201DE9E72468002CF0D100204B
:104FF000E4E70000380200203C020020A00200206C
:10500000FE48006890F8210020F00100401CFB4998
:10501000096881F82100F948006800F5DC70FFF7A5
:10502000BDFCF6480068D0F8A80238B903F000F9D2
:10503000054615B12846FFF785FE00BFFFF7B2FB16
:10504000054603F081FF82E2FFF7E6FB0446002CF1
:1050500000DA7CE21B2C05D10120E849096881F8BF
:10506000200074E2E548006890F8200001280DD186
:105070005B2C05D10220E149096881F8200066E235
:105080000020DE49096881F82000BEE0DB480068A6
:1050900090F820000228F8D10020D849096881F84A
:1050A0002000412C36D1D5480068408C002807DD0F
:1050B000D2480068408C401ED0490968488404E00A
:1050C0000020CE490968488441E2CC480068408C01
:1050D00000EB8002C9480068263000EB0211502224
:1050E000C648006800F51570FBF7E7F9C34800688B
:1050F00000F51570FBF76BF980B2C0490968A1F89B
:10510000A402BE490968A1F8A602BC48006806F0DE
:1051100047F91CE2422C42D1B8480068418CB7489C
:105120000068808C401E814207DAB4480068408CD9
:10513000401CB249096848840CE0B0480068808C83
:1051400038B1AE480068808C401EAC49096848847C
:1051500000E0FCE1A9480068408C00EB8002A74811
:105160000068263000EB02115022A448006800F5C8
:105170001570FBF7A2F9A148006800F51570FBF760
:1051800026F980B29D490968A1F8A4029B490968E3
:10519000A1F8A6029948006806F002F9D7E1442C6C
:1051A00011D196480068B0F8A60258B194A003F057
:1051B000CBFE92480068B0F8A602401E8F490968ED
:1051C000A1F8A602C3E1432C1FD18C480068B0F8B7
:1051D000A6028A490968B1F8A412884214DA8748FD
:1051E0000068B0F8A6228548006800F51570815C5B
:1051F00084A003F0A9FE81480068B0F8A602401C14
:105200007E490968A1F8A602A1E10CB1FF2C00D1EA
:105210009DE1092C21D1002503E079A003F094FE43
:105220006D1C76480068B0F8A602A842F5DC734809
:10523000006800F5157006F093F87048006800F5F6
:105240001570FBF7C4F880B26C490968A1F8A40294
:105250006A490968A1F8A60279E17F2C01D0082CDF
:1052600074D166480068B0F8A60200B96FE16348DF
:105270000068B0F8A402401E60490968A1F8A402C1
:105280005E480068B0F8A602401E5C490968A1F8B3
:10529000A6025A480068B0F8A40258490968B1F853
:1052A000A612884243DD554B1B68B3F8A432534E17
:1052B0003668B6F8A6629A1B504B1B68B3F8A63244
:1052C0005B1C4E4E366806F5157699194B4B1B68DC
:1052D000B3F8A662494B1B6803F51573F01804F088
:1052E00027F8002145480068B0F8A4224348006828
:1052F00000F51570815441480068B0F8A6223F4877
:10530000006800F5157011183FA003F01DFE3B4822
:105310000068B0F8A65203E039A003F015FE6D1C3A
:1053200036480068B0F8A402A842F5DA0CE038A0CC
:1053300003F00AFE002131480068B0F8A4222F488B
:10534000006800F51570815401E1FFE70D2C01D0D4
:105350000A2C64D12948006806F03AF801F0ACFF45
:10536000012814D12548006890F8210000F00100C0
:1053700010B128A003F0E8FD20480068B0F8A4129E
:105380001E48006800F5157001F0EAFE22E03B219E
:105390001A480068B0F8A4221848006800F5157093
:1053A000815416480068B0F8A40248B11348016857
:1053B00001F51571006800F5DC70FFF739FC09E0B4
:1053C0000E48006890F8210000F0010010B111A013
:1053D00003F0BAFDFFF7E6F9054603F0B5FD5021ED
:1053E0000648006800F51570FBF700F90020034936
:1053F0000968A1F8A402014909680DE040020020F3
:105400000800000025630000082573202008000024
:10541000082008000A000000A1F8A60297E04C4806
:105420000068B0F8A402502804DB0020484909684D
:10543000A1F8A40246480068B0F8A60244490968E9
:10544000B1F8A41288424ADA414B1B68B3F8A4327F
:105450003F4E3668B6F8A6629A1B3D4B1B68B3F800
:10546000A6623B4B1B6803F51573F118384B1B689C
:10547000B3F8A6325B1C364E366806F515769819D9
:1054800003F056FF32480068B0F8A62230480068A2
:1054900000F5157084542E48006890F8210000F043
:1054A000010058B12A480068B0F8A62228480068D0
:1054B00000F51570111827A003F046FD2448006878
:1054C000B0F8A65204E0AFF2C80003F03DFD6D1C39
:1054D0001F480068B0F8A402A842F4DC14E01C489D
:1054E0000068B0F8A4221A48006800F515708454CA
:1054F0001748006890F8210000F0010020B1214613
:10550000AFF2001003F020FD002411480068B0F84D
:10551000A402401C0E490968A1F8A4020C480068C6
:10552000B0F8A602401C0A490968A1F8A60208487A
:105530000068B0F8A402502808DB0020044909687C
:10554000A1F8A40202490968A1F8A60200BF7BE500
:10555000400200202573000070B504460D469421DA
:105560002046FBF743F8C4F8905070BD10B50446D0
:10557000607810B10020607002E0204606F0E4F987
:10558000207A10BD70B504460D46002C61D02078FD
:10559000132808D02078152805D02078162802D0A6
:1055A00020781A2804D108212069FFF7EBFF0CE0CE
:1055B0002078192805D125B100212069FFF7E2FFE5
:1055C00003E029462069FFF7DDFF0021E068FFF7CF
:1055D000D9FFA078042802D0A0782843A0702069C1
:1055E00020B1206940786070002070BD20780128CB
:1055F00061D1A07800F0010060B3A6684EB3707C62
:105600000F2821D2DFE800F020081A0B0C190F1028
:105610001B13141C15161D000020607018E000BF3D
:105620000120607014E000BF0220607010E000BF35
:1056300000BF00BF032060700AE000BF00BF00BFD2
:1056400000BF0320607003E00320FFF78FF800BF66
:1056500000BF44E0A07800F0020058B3A6684EB343
:10566000307A0F2821D2DFE800F020081A0B0C193D
:105670000F101B13141C15161D000020607018E07D
:1056800000BF0120607014E000BF0220607010E0D5
:1056900000BF00BF00BF032060700AE000BF00BF72
:1056A00000BF00BF0320607003E00320FFF75EF837
:1056B00000BF00BF13E02078022802D101206070F3
:1056C0000DE02078032808D02078042805D0207821
:1056D000052802D02078062801D103206070002020
:1056E00083E7000010B5C0210248FAF77FFF0020D1
:1056F00010BD0000CC0800202DE9F04106460F4601
:105700004FF0FF35002418E004EB4401174A02EB88
:10571000C10010223146FAF779FE18B94FF0FF3078
:10572000BDE8F08104EB4400104901EBC000407C6F
:1057300010B9681C00B92546641C082CE4DB681C01
:1057400010B94FF0FF30EBE705EB4501074A02EBDC
:10575000C10010223146FAF770FF05EB4501034AFC
:1057600002EBC1014F742846DAE70000CC080020A4
:1057700070B5054600240BE004EB44010B4A02EB34
:10578000C10010222946FAF741FE00B902E0641C6C
:10579000082CF1DB00BF082C01D1002070BD04EB08
:1057A0004400024901EBC000F8E70000CC080020EB
:1057B00010B50F480F4908600F48104908600BE00A
:1057C0000E48006804780D480068401C0B490860CA
:1057D0000B4951F824008047084800680649401AE0
:1057E00004D406480068401A8028E9DB10BD000098
:1057F0008C090020A40200208C0A0020A8020020AE
:10580000ACCA00080146312908D201EB8102044BE1
:1058100003EB8200826812B9002000E0002070478C
:1058200094C3000810B51448006800F0020010B1DD
:1058300012A003F089FB1048006800F0804088B196
:105840000D48C01E007808B1FDF716FB0A48001F7E
:10585000007808B101F00CF90748801E008808B1F3
:1058600006F0B4F90448006800F0004010B109A047
:1058700003F06AFB10BD00002CED00E06661696C6E
:10588000656420766563746F722066657463680A68
:10589000000000006465627567206576656E740AB5
:1058A0000000000010B502A003F04EFB002010BD68
:1058B00048656C6C6F2052542D5468726561642188
:1058C0000A00000070B5054609E002212846FCF7F1
:1058D00097FD20B102212846FCF784FD00E0F4E7A3
:1058E00000BF2846FCF7D6FDC4B20D2C01D1002024
:1058F00070BD2046FCE7000070B51FA003F024FB3C
:10590000224804680DE0022221A12068FAF77EFDFA
:1059100000B905E01FA0D4E9001203F015FB00BF99
:105920000C34204800688442EDD31F48056804E029
:105930001EA0696803F008FB2D68002DF8D11DA09A
:1059400003F002FB2048046805E012A0D4E900122D
:1059500003F0FAFA10341D4800688442F5D31C485D
:10596000066804E011A0716803F0EEFA3668002EB4
:10597000F8D1002070BD00002D2D46756E6374694E
:105980006F6E204C6973743A0A00000030020020E8
:105990005F5F0000252D313673202D2D2025730AE1
:1059A0000000000034020020AC0200205B6C5D208F
:1059B00025730A002D2D5661726961626C65204C59
:1059C0006973743A0A000000380200203C0200208B
:1059D000A00200202DE9F04790B000270FF2A009A7
:1059E000082303AA09210BA800F022F94FF00808A8
:1059F0004A46414624A003F0A7FA404601F0DAFCEB
:105A00002BA003F0A1FA00BF0BA9384600F025F93E
:105A1000074600262BE003A850F82600A0F10C054D
:105A2000FAF7FEFB8246287A20F080009DF83410B9
:105A3000884203D05046FAF7F7FB17E05046FAF7D2
:105A4000F3FB2C46A17E207D152804DC207D214A15
:105A500052F8200001E01F48406D23460822CDE99E
:105A6000000141461CA003F06FFA00BF761C0F989E
:105A7000B042D0DC002FC7D1002010B0BDE8F087C5
:105A80006465766963650000252D2A2E7320202029
:105A900020202020202074797065202020202020C4
:105AA00020202072656620636F756E740A00000006
:105AB000202D2D2D2D2D2D2D2D2D2D2D2D2D2D2D23
:105AC0002D2D2D2D2D202D2D2D2D2D2D2D2D2D2D13
:105AD0000A00000044CA0008252D2A2E2A7320251A
